{
  "_format": "hh-sol-artifact-1",
  "contractName": "CrowdFunding",
  "sourceName": "contracts/CrowdFunding.sol",
  "abi": [
    {
      "inputs": [
        {
          "internalType": "uint256",
          "name": "",
          "type": "uint256"
        }
      ],
      "name": "campaigns",
      "outputs": [
        {
          "internalType": "address",
          "name": "owner",
          "type": "address"
        },
        {
          "internalType": "string",
          "name": "title",
          "type": "string"
        },
        {
          "internalType": "string",
          "name": "description",
          "type": "string"
        },
        {
          "internalType": "uint256",
          "name": "target",
          "type": "uint256"
        },
        {
          "internalType": "uint256",
          "name": "deadline",
          "type": "uint256"
        },
        {
          "internalType": "uint256",
          "name": "amountCollected",
          "type": "uint256"
        }
      ],
      "stateMutability": "view",
      "type": "function"
    },
    {
      "inputs": [
        {
          "internalType": "address",
          "name": "_owner",
          "type": "address"
        },
        {
          "internalType": "string",
          "name": "_title",
          "type": "string"
        },
        {
          "internalType": "string",
          "name": "_description",
          "type": "string"
        },
        {
          "internalType": "uint256",
          "name": "_target",
          "type": "uint256"
        },
        {
          "internalType": "uint256",
          "name": "_deadline",
          "type": "uint256"
        }
      ],
      "name": "createCampaign",
      "outputs": [
        {
          "internalType": "uint256",
          "name": "",
          "type": "uint256"
        }
      ],
      "stateMutability": "nonpayable",
      "type": "function"
    },
    {
      "inputs": [
        {
          "internalType": "uint256",
          "name": "_id",
          "type": "uint256"
        }
      ],
      "name": "donateTocampaign",
      "outputs": [],
      "stateMutability": "payable",
      "type": "function"
    },
    {
      "inputs": [],
      "name": "getCampaigns",
      "outputs": [
        {
          "components": [
            {
              "internalType": "address",
              "name": "owner",
              "type": "address"
            },
            {
              "internalType": "string",
              "name": "title",
              "type": "string"
            },
            {
              "internalType": "string",
              "name": "description",
              "type": "string"
            },
            {
              "internalType": "uint256",
              "name": "target",
              "type": "uint256"
            },
            {
              "internalType": "uint256",
              "name": "deadline",
              "type": "uint256"
            },
            {
              "internalType": "uint256",
              "name": "amountCollected",
              "type": "uint256"
            },
            {
              "internalType": "address[]",
              "name": "donators",
              "type": "address[]"
            },
            {
              "internalType": "uint256[]",
              "name": "donations",
              "type": "uint256[]"
            }
          ],
          "internalType": "struct CrowdFunding.Campaign[]",
          "name": "",
          "type": "tuple[]"
        }
      ],
      "stateMutability": "view",
      "type": "function"
    },
    {
      "inputs": [
        {
          "internalType": "uint256",
          "name": "_id",
          "type": "uint256"
        }
      ],
      "name": "getDoner",
      "outputs": [
        {
          "internalType": "address[]",
          "name": "",
          "type": "address[]"
        },
        {
          "internalType": "uint256[]",
          "name": "",
          "type": "uint256[]"
        }
      ],
      "stateMutability": "view",
      "type": "function"
    },
    {
      "inputs": [],
      "name": "getnumberofCampaigns",
      "outputs": [
        {
          "internalType": "uint256",
          "name": "",
          "type": "uint256"
        }
      ],
      "stateMutability": "view",
      "type": "function"
    }
  ],
  "bytecode": "0x6080604052600060015534801561001557600080fd5b5061178f806100256000396000f3fe6080604052600436106100555760003560e01c8063075843c31461005a578063141961bc1461009757806321f39951146100d957806362d708f8146101045780639db00d5314610142578063a6b036331461015e575b600080fd5b34801561006657600080fd5b50610081600480360381019061007c9190610c0a565b610189565b60405161008e9190610ccc565b60405180910390f35b3480156100a357600080fd5b506100be60048036038101906100b99190610ce7565b61029d565b6040516100d096959493929190610da2565b60405180910390f35b3480156100e557600080fd5b506100ee610409565b6040516100fb9190610ccc565b60405180910390f35b34801561011057600080fd5b5061012b60048036038101906101269190610ce7565b610413565b604051610139929190610f8d565b60405180910390f35b61015c60048036038101906101579190610ce7565b610523565b005b34801561016a57600080fd5b50610173610683565b6040516101809190611273565b60405180910390f35b60008060008060015481526020019081526020016000209050428160040154106101e8576040517f08c379a00000000000000000000000000000000000000000000000000000000081526004016101df90611307565b60405180910390fd5b868160000160006101000a81548173ffffffffffffffffffffffffffffffffffffffff021916908373ffffffffffffffffffffffffffffffffffffffff1602179055508581600101908161023c9190611533565b508481600201908161024e9190611533565b50838160030181905550828160040181905550600081600501819055506001600081548092919061027e90611634565b919050555060018054610291919061167c565b91505095945050505050565b60006020528060005260406000206000915090508060000160009054906101000a900473ffffffffffffffffffffffffffffffffffffffff16908060010180546102e690611356565b80601f016020809104026020016040519081016040528092919081815260200182805461031290611356565b801561035f5780601f106103345761010080835404028352916020019161035f565b820191906000526020600020905b81548152906001019060200180831161034257829003601f168201915b50505050509080600201805461037490611356565b80601f01602080910402602001604051908101604052809291908181526020018280546103a090611356565b80156103ed5780601f106103c2576101008083540402835291602001916103ed565b820191906000526020600020905b8154815290600101906020018083116103d057829003601f168201915b5050505050908060030154908060040154908060050154905086565b6000600154905090565b606080600080848152602001908152602001600020600601600080858152602001908152602001600020600701818054806020026020016040519081016040528092919081815260200182805480156104c157602002820191906000526020600020905b8160009054906101000a900473ffffffffffffffffffffffffffffffffffffffff1673ffffffffffffffffffffffffffffffffffffffff1681526020019060010190808311610477575b505050505091508080548060200260200160405190810160405280929190818152602001828054801561051357602002820191906000526020600020905b8154815260200190600101908083116104ff575b5050505050905091509150915091565b60003490506000806000848152602001908152602001600020905080600601339080600181540180825580915050600190039060005260206000200160009091909190916101000a81548173ffffffffffffffffffffffffffffffffffffffff021916908373ffffffffffffffffffffffffffffffffffffffff1602179055508060070182908060018154018082558091505060019003906000526020600020016000909190919091505560008160000160009054906101000a900473ffffffffffffffffffffffffffffffffffffffff1673ffffffffffffffffffffffffffffffffffffffff1683604051610618906116e1565b60006040518083038185875af1925050503d8060008114610655576040519150601f19603f3d011682016040523d82523d6000602084013e61065a565b606091505b50509050801561067d5782826005015461067491906116f6565b82600501819055505b50505050565b6060600060015467ffffffffffffffff8111156106a3576106a2610aa9565b5b6040519080825280602002602001820160405280156106dc57816020015b6106c96109c1565b8152602001906001900390816106c15790505b50905060005b6001548110156109b957600080828152602001908152602001600020604051806101000160405290816000820160009054906101000a900473ffffffffffffffffffffffffffffffffffffffff1673ffffffffffffffffffffffffffffffffffffffff1673ffffffffffffffffffffffffffffffffffffffff16815260200160018201805461077090611356565b80601f016020809104026020016040519081016040528092919081815260200182805461079c90611356565b80156107e95780601f106107be576101008083540402835291602001916107e9565b820191906000526020600020905b8154815290600101906020018083116107cc57829003601f168201915b5050505050815260200160028201805461080290611356565b80601f016020809104026020016040519081016040528092919081815260200182805461082e90611356565b801561087b5780601f106108505761010080835404028352916020019161087b565b820191906000526020600020905b81548152906001019060200180831161085e57829003601f168201915b505050505081526020016003820154815260200160048201548152602001600582015481526020016006820180548060200260200160405190810160405280929190818152602001828054801561092757602002820191906000526020600020905b8160009054906101000a900473ffffffffffffffffffffffffffffffffffffffff1673ffffffffffffffffffffffffffffffffffffffff16815260200190600101908083116108dd575b505050505081526020016007820180548060200260200160405190810160405280929190818152602001828054801561097f57602002820191906000526020600020905b81548152602001906001019080831161096b575b50505050508152505082828151811061099b5761099a61172a565b5b602002602001018190525080806109b190611634565b9150506106e2565b508091505090565b604051806101000160405280600073ffffffffffffffffffffffffffffffffffffffff168152602001606081526020016060815260200160008152602001600081526020016000815260200160608152602001606081525090565b6000604051905090565b600080fd5b600080fd5b600073ffffffffffffffffffffffffffffffffffffffff82169050919050565b6000610a5b82610a30565b9050919050565b610a6b81610a50565b8114610a7657600080fd5b50565b600081359050610a8881610a62565b92915050565b600080fd5b600080fd5b6000601f19601f8301169050919050565b7f4e487b7100000000000000000000000000000000000000000000000000000000600052604160045260246000fd5b610ae182610a98565b810181811067ffffffffffffffff82111715610b0057610aff610aa9565b5b80604052505050565b6000610b13610a1c565b9050610b1f8282610ad8565b919050565b600067ffffffffffffffff821115610b3f57610b3e610aa9565b5b610b4882610a98565b9050602081019050919050565b82818337600083830152505050565b6000610b77610b7284610b24565b610b09565b905082815260208101848484011115610b9357610b92610a93565b5b610b9e848285610b55565b509392505050565b600082601f830112610bbb57610bba610a8e565b5b8135610bcb848260208601610b64565b91505092915050565b6000819050919050565b610be781610bd4565b8114610bf257600080fd5b50565b600081359050610c0481610bde565b92915050565b600080600080600060a08688031215610c2657610c25610a26565b5b6000610c3488828901610a79565b955050602086013567ffffffffffffffff811115610c5557610c54610a2b565b5b610c6188828901610ba6565b945050604086013567ffffffffffffffff811115610c8257610c81610a2b565b5b610c8e88828901610ba6565b9350506060610c9f88828901610bf5565b9250506080610cb088828901610bf5565b9150509295509295909350565b610cc681610bd4565b82525050565b6000602082019050610ce16000830184610cbd565b92915050565b600060208284031215610cfd57610cfc610a26565b5b6000610d0b84828501610bf5565b91505092915050565b610d1d81610a50565b82525050565b600081519050919050565b600082825260208201905092915050565b60005b83811015610d5d578082015181840152602081019050610d42565b60008484015250505050565b6000610d7482610d23565b610d7e8185610d2e565b9350610d8e818560208601610d3f565b610d9781610a98565b840191505092915050565b600060c082019050610db76000830189610d14565b8181036020830152610dc98188610d69565b90508181036040830152610ddd8187610d69565b9050610dec6060830186610cbd565b610df96080830185610cbd565b610e0660a0830184610cbd565b979650505050505050565b600081519050919050565b600082825260208201905092915050565b6000819050602082019050919050565b610e4681610a50565b82525050565b6000610e588383610e3d565b60208301905092915050565b6000602082019050919050565b6000610e7c82610e11565b610e868185610e1c565b9350610e9183610e2d565b8060005b83811015610ec2578151610ea98882610e4c565b9750610eb483610e64565b925050600181019050610e95565b5085935050505092915050565b600081519050919050565b600082825260208201905092915050565b6000819050602082019050919050565b610f0481610bd4565b82525050565b6000610f168383610efb565b60208301905092915050565b6000602082019050919050565b6000610f3a82610ecf565b610f448185610eda565b9350610f4f83610eeb565b8060005b83811015610f80578151610f678882610f0a565b9750610f7283610f22565b925050600181019050610f53565b5085935050505092915050565b60006040820190508181036000830152610fa78185610e71565b90508181036020830152610fbb8184610f2f565b90509392505050565b600081519050919050565b600082825260208201905092915050565b6000819050602082019050919050565b600082825260208201905092915050565b600061100c82610d23565b6110168185610ff0565b9350611026818560208601610d3f565b61102f81610a98565b840191505092915050565b600082825260208201905092915050565b600061105682610e11565b611060818561103a565b935061106b83610e2d565b8060005b8381101561109c5781516110838882610e4c565b975061108e83610e64565b92505060018101905061106f565b5085935050505092915050565b600082825260208201905092915050565b60006110c582610ecf565b6110cf81856110a9565b93506110da83610eeb565b8060005b8381101561110b5781516110f28882610f0a565b97506110fd83610f22565b9250506001810190506110de565b5085935050505092915050565b6000610100830160008301516111316000860182610e3d565b50602083015184820360208601526111498282611001565b915050604083015184820360408601526111638282611001565b91505060608301516111786060860182610efb565b50608083015161118b6080860182610efb565b5060a083015161119e60a0860182610efb565b5060c083015184820360c08601526111b6828261104b565b91505060e083015184820360e08601526111d082826110ba565b9150508091505092915050565b60006111e98383611118565b905092915050565b6000602082019050919050565b600061120982610fc4565b6112138185610fcf565b93508360208202850161122585610fe0565b8060005b85811015611261578484038952815161124285826111dd565b945061124d836111f1565b925060208a01995050600181019050611229565b50829750879550505050505092915050565b6000602082019050818103600083015261128d81846111fe565b905092915050565b7f736f6d657468696e672069732077726f6e67207769746820746865206465616460008201527f6c696e6500000000000000000000000000000000000000000000000000000000602082015250565b60006112f1602483610d2e565b91506112fc82611295565b604082019050919050565b60006020820190508181036000830152611320816112e4565b9050919050565b7f4e487b7100000000000000000000000000000000000000000000000000000000600052602260045260246000fd5b6000600282049050600182168061136e57607f821691505b60208210810361138157611380611327565b5b50919050565b60008190508160005260206000209050919050565b60006020601f8301049050919050565b600082821b905092915050565b6000600883026113e97fffffffffffffffffffffffffffffffffffffffffffffffffffffffffffffffff826113ac565b6113f386836113ac565b95508019841693508086168417925050509392505050565b6000819050919050565b600061143061142b61142684610bd4565b61140b565b610bd4565b9050919050565b6000819050919050565b61144a83611415565b61145e61145682611437565b8484546113b9565b825550505050565b600090565b611473611466565b61147e818484611441565b505050565b5b818110156114a25761149760008261146b565b600181019050611484565b5050565b601f8211156114e7576114b881611387565b6114c18461139c565b810160208510156114d0578190505b6114e46114dc8561139c565b830182611483565b50505b505050565b600082821c905092915050565b600061150a600019846008026114ec565b1980831691505092915050565b600061152383836114f9565b9150826002028217905092915050565b61153c82610d23565b67ffffffffffffffff81111561155557611554610aa9565b5b61155f8254611356565b61156a8282856114a6565b600060209050601f83116001811461159d576000841561158b578287015190505b6115958582611517565b8655506115fd565b601f1984166115ab86611387565b60005b828110156115d3578489015182556001820191506020850194506020810190506115ae565b868310156115f057848901516115ec601f8916826114f9565b8355505b6001600288020188555050505b505050505050565b7f4e487b7100000000000000000000000000000000000000000000000000000000600052601160045260246000fd5b600061163f82610bd4565b91507fffffffffffffffffffffffffffffffffffffffffffffffffffffffffffffffff820361167157611670611605565b5b600182019050919050565b600061168782610bd4565b915061169283610bd4565b92508282039050818111156116aa576116a9611605565b5b92915050565b600081905092915050565b50565b60006116cb6000836116b0565b91506116d6826116bb565b600082019050919050565b60006116ec826116be565b9150819050919050565b600061170182610bd4565b915061170c83610bd4565b925082820190508082111561172457611723611605565b5b92915050565b7f4e487b7100000000000000000000000000000000000000000000000000000000600052603260045260246000fdfea264697066735822122083f8b90ae056de60ffcc69511fcf6ba7b534ab746ef70ff3d7df2fe06d84c39d64736f6c63430008130033",
  "linkReferences": {},
  "deployedLinkReferences": {}
}