{
  "_format": "hh-sol-artifact-1",
  "contractName": "CrowdFunding",
  "sourceName": "contracts/CrowdFunding.sol",
  "abi": [
    {
      "inputs": [
        {
          "internalType": "uint256",
          "name": "",
          "type": "uint256"
        }
      ],
      "name": "campaigns",
      "outputs": [
        {
          "internalType": "address",
          "name": "owner",
          "type": "address"
        },
        {
          "internalType": "string",
          "name": "title",
          "type": "string"
        },
        {
          "internalType": "string",
          "name": "description",
          "type": "string"
        },
        {
          "internalType": "uint256",
          "name": "target",
          "type": "uint256"
        },
        {
          "internalType": "uint256",
          "name": "deadline",
          "type": "uint256"
        },
        {
          "internalType": "uint256",
          "name": "amountCollected",
          "type": "uint256"
        }
      ],
      "stateMutability": "view",
      "type": "function"
    },
    {
      "inputs": [
        {
          "internalType": "address",
          "name": "_owner",
          "type": "address"
        },
        {
          "internalType": "string",
          "name": "_title",
          "type": "string"
        },
        {
          "internalType": "string",
          "name": "_description",
          "type": "string"
        },
        {
          "internalType": "uint256",
          "name": "_target",
          "type": "uint256"
        },
        {
          "internalType": "uint256",
          "name": "_deadline",
          "type": "uint256"
        }
      ],
      "name": "createCampaign",
      "outputs": [
        {
          "internalType": "uint256",
          "name": "",
          "type": "uint256"
        }
      ],
      "stateMutability": "nonpayable",
      "type": "function"
    },
    {
      "inputs": [
        {
          "internalType": "uint256",
          "name": "_id",
          "type": "uint256"
        }
      ],
      "name": "donateTocampaign",
      "outputs": [],
      "stateMutability": "payable",
      "type": "function"
    },
    {
      "inputs": [],
      "name": "getCampaigns",
      "outputs": [
        {
          "components": [
            {
              "internalType": "address",
              "name": "owner",
              "type": "address"
            },
            {
              "internalType": "string",
              "name": "title",
              "type": "string"
            },
            {
              "internalType": "string",
              "name": "description",
              "type": "string"
            },
            {
              "internalType": "uint256",
              "name": "target",
              "type": "uint256"
            },
            {
              "internalType": "uint256",
              "name": "deadline",
              "type": "uint256"
            },
            {
              "internalType": "uint256",
              "name": "amountCollected",
              "type": "uint256"
            },
            {
              "internalType": "address[]",
              "name": "donators",
              "type": "address[]"
            },
            {
              "internalType": "uint256[]",
              "name": "donations",
              "type": "uint256[]"
            }
          ],
          "internalType": "struct CrowdFunding.Campaign[]",
          "name": "",
          "type": "tuple[]"
        }
      ],
      "stateMutability": "view",
      "type": "function"
    },
    {
      "inputs": [
        {
          "internalType": "uint256",
          "name": "_id",
          "type": "uint256"
        }
      ],
      "name": "getDoner",
      "outputs": [
        {
          "internalType": "address[]",
          "name": "",
          "type": "address[]"
        },
        {
          "internalType": "uint256[]",
          "name": "",
          "type": "uint256[]"
        }
      ],
      "stateMutability": "view",
      "type": "function"
    }
  ],
  "bytecode": "0x6080604052600060015534801561001557600080fd5b5061174f806100256000396000f3fe60806040526004361061004a5760003560e01c8063075843c31461004f578063141961bc1461008c57806362d708f8146100ce5780639db00d531461010c578063a6b0363314610128575b600080fd5b34801561005b57600080fd5b5061007660048036038101906100719190610bca565b610153565b6040516100839190610c8c565b60405180910390f35b34801561009857600080fd5b506100b360048036038101906100ae9190610ca7565b610267565b6040516100c596959493929190610d62565b60405180910390f35b3480156100da57600080fd5b506100f560048036038101906100f09190610ca7565b6103d3565b604051610103929190610f4d565b60405180910390f35b61012660048036038101906101219190610ca7565b6104e3565b005b34801561013457600080fd5b5061013d610643565b60405161014a9190611233565b60405180910390f35b60008060008060015481526020019081526020016000209050428160040154106101b2576040517f08c379a00000000000000000000000000000000000000000000000000000000081526004016101a9906112c7565b60405180910390fd5b868160000160006101000a81548173ffffffffffffffffffffffffffffffffffffffff021916908373ffffffffffffffffffffffffffffffffffffffff1602179055508581600101908161020691906114f3565b508481600201908161021891906114f3565b508381600301819055508281600401819055506000816005018190555060016000815480929190610248906115f4565b91905055506001805461025b919061163c565b91505095945050505050565b60006020528060005260406000206000915090508060000160009054906101000a900473ffffffffffffffffffffffffffffffffffffffff16908060010180546102b090611316565b80601f01602080910402602001604051908101604052809291908181526020018280546102dc90611316565b80156103295780601f106102fe57610100808354040283529160200191610329565b820191906000526020600020905b81548152906001019060200180831161030c57829003601f168201915b50505050509080600201805461033e90611316565b80601f016020809104026020016040519081016040528092919081815260200182805461036a90611316565b80156103b75780601f1061038c576101008083540402835291602001916103b7565b820191906000526020600020905b81548152906001019060200180831161039a57829003601f168201915b5050505050908060030154908060040154908060050154905086565b6060806000808481526020019081526020016000206006016000808581526020019081526020016000206007018180548060200260200160405190810160405280929190818152602001828054801561048157602002820191906000526020600020905b8160009054906101000a900473ffffffffffffffffffffffffffffffffffffffff1673ffffffffffffffffffffffffffffffffffffffff1681526020019060010190808311610437575b50505050509150808054806020026020016040519081016040528092919081815260200182805480156104d357602002820191906000526020600020905b8154815260200190600101908083116104bf575b5050505050905091509150915091565b60003490506000806000848152602001908152602001600020905080600601339080600181540180825580915050600190039060005260206000200160009091909190916101000a81548173ffffffffffffffffffffffffffffffffffffffff021916908373ffffffffffffffffffffffffffffffffffffffff1602179055508060070182908060018154018082558091505060019003906000526020600020016000909190919091505560008160000160009054906101000a900473ffffffffffffffffffffffffffffffffffffffff1673ffffffffffffffffffffffffffffffffffffffff16836040516105d8906116a1565b60006040518083038185875af1925050503d8060008114610615576040519150601f19603f3d011682016040523d82523d6000602084013e61061a565b606091505b50509050801561063d5782826005015461063491906116b6565b82600501819055505b50505050565b6060600060015467ffffffffffffffff81111561066357610662610a69565b5b60405190808252806020026020018201604052801561069c57816020015b610689610981565b8152602001906001900390816106815790505b50905060005b60015481101561097957600080828152602001908152602001600020604051806101000160405290816000820160009054906101000a900473ffffffffffffffffffffffffffffffffffffffff1673ffffffffffffffffffffffffffffffffffffffff1673ffffffffffffffffffffffffffffffffffffffff16815260200160018201805461073090611316565b80601f016020809104026020016040519081016040528092919081815260200182805461075c90611316565b80156107a95780601f1061077e576101008083540402835291602001916107a9565b820191906000526020600020905b81548152906001019060200180831161078c57829003601f168201915b505050505081526020016002820180546107c290611316565b80601f01602080910402602001604051908101604052809291908181526020018280546107ee90611316565b801561083b5780601f106108105761010080835404028352916020019161083b565b820191906000526020600020905b81548152906001019060200180831161081e57829003601f168201915b50505050508152602001600382015481526020016004820154815260200160058201548152602001600682018054806020026020016040519081016040528092919081815260200182805480156108e757602002820191906000526020600020905b8160009054906101000a900473ffffffffffffffffffffffffffffffffffffffff1673ffffffffffffffffffffffffffffffffffffffff168152602001906001019080831161089d575b505050505081526020016007820180548060200260200160405190810160405280929190818152602001828054801561093f57602002820191906000526020600020905b81548152602001906001019080831161092b575b50505050508152505082828151811061095b5761095a6116ea565b5b60200260200101819052508080610971906115f4565b9150506106a2565b508091505090565b604051806101000160405280600073ffffffffffffffffffffffffffffffffffffffff168152602001606081526020016060815260200160008152602001600081526020016000815260200160608152602001606081525090565b6000604051905090565b600080fd5b600080fd5b600073ffffffffffffffffffffffffffffffffffffffff82169050919050565b6000610a1b826109f0565b9050919050565b610a2b81610a10565b8114610a3657600080fd5b50565b600081359050610a4881610a22565b92915050565b600080fd5b600080fd5b6000601f19601f8301169050919050565b7f4e487b7100000000000000000000000000000000000000000000000000000000600052604160045260246000fd5b610aa182610a58565b810181811067ffffffffffffffff82111715610ac057610abf610a69565b5b80604052505050565b6000610ad36109dc565b9050610adf8282610a98565b919050565b600067ffffffffffffffff821115610aff57610afe610a69565b5b610b0882610a58565b9050602081019050919050565b82818337600083830152505050565b6000610b37610b3284610ae4565b610ac9565b905082815260208101848484011115610b5357610b52610a53565b5b610b5e848285610b15565b509392505050565b600082601f830112610b7b57610b7a610a4e565b5b8135610b8b848260208601610b24565b91505092915050565b6000819050919050565b610ba781610b94565b8114610bb257600080fd5b50565b600081359050610bc481610b9e565b92915050565b600080600080600060a08688031215610be657610be56109e6565b5b6000610bf488828901610a39565b955050602086013567ffffffffffffffff811115610c1557610c146109eb565b5b610c2188828901610b66565b945050604086013567ffffffffffffffff811115610c4257610c416109eb565b5b610c4e88828901610b66565b9350506060610c5f88828901610bb5565b9250506080610c7088828901610bb5565b9150509295509295909350565b610c8681610b94565b82525050565b6000602082019050610ca16000830184610c7d565b92915050565b600060208284031215610cbd57610cbc6109e6565b5b6000610ccb84828501610bb5565b91505092915050565b610cdd81610a10565b82525050565b600081519050919050565b600082825260208201905092915050565b60005b83811015610d1d578082015181840152602081019050610d02565b60008484015250505050565b6000610d3482610ce3565b610d3e8185610cee565b9350610d4e818560208601610cff565b610d5781610a58565b840191505092915050565b600060c082019050610d776000830189610cd4565b8181036020830152610d898188610d29565b90508181036040830152610d9d8187610d29565b9050610dac6060830186610c7d565b610db96080830185610c7d565b610dc660a0830184610c7d565b979650505050505050565b600081519050919050565b600082825260208201905092915050565b6000819050602082019050919050565b610e0681610a10565b82525050565b6000610e188383610dfd565b60208301905092915050565b6000602082019050919050565b6000610e3c82610dd1565b610e468185610ddc565b9350610e5183610ded565b8060005b83811015610e82578151610e698882610e0c565b9750610e7483610e24565b925050600181019050610e55565b5085935050505092915050565b600081519050919050565b600082825260208201905092915050565b6000819050602082019050919050565b610ec481610b94565b82525050565b6000610ed68383610ebb565b60208301905092915050565b6000602082019050919050565b6000610efa82610e8f565b610f048185610e9a565b9350610f0f83610eab565b8060005b83811015610f40578151610f278882610eca565b9750610f3283610ee2565b925050600181019050610f13565b5085935050505092915050565b60006040820190508181036000830152610f678185610e31565b90508181036020830152610f7b8184610eef565b90509392505050565b600081519050919050565b600082825260208201905092915050565b6000819050602082019050919050565b600082825260208201905092915050565b6000610fcc82610ce3565b610fd68185610fb0565b9350610fe6818560208601610cff565b610fef81610a58565b840191505092915050565b600082825260208201905092915050565b600061101682610dd1565b6110208185610ffa565b935061102b83610ded565b8060005b8381101561105c5781516110438882610e0c565b975061104e83610e24565b92505060018101905061102f565b5085935050505092915050565b600082825260208201905092915050565b600061108582610e8f565b61108f8185611069565b935061109a83610eab565b8060005b838110156110cb5781516110b28882610eca565b97506110bd83610ee2565b92505060018101905061109e565b5085935050505092915050565b6000610100830160008301516110f16000860182610dfd565b50602083015184820360208601526111098282610fc1565b915050604083015184820360408601526111238282610fc1565b91505060608301516111386060860182610ebb565b50608083015161114b6080860182610ebb565b5060a083015161115e60a0860182610ebb565b5060c083015184820360c0860152611176828261100b565b91505060e083015184820360e0860152611190828261107a565b9150508091505092915050565b60006111a983836110d8565b905092915050565b6000602082019050919050565b60006111c982610f84565b6111d38185610f8f565b9350836020820285016111e585610fa0565b8060005b858110156112215784840389528151611202858261119d565b945061120d836111b1565b925060208a019950506001810190506111e9565b50829750879550505050505092915050565b6000602082019050818103600083015261124d81846111be565b905092915050565b7f736f6d657468696e672069732077726f6e67207769746820746865206465616460008201527f6c696e6500000000000000000000000000000000000000000000000000000000602082015250565b60006112b1602483610cee565b91506112bc82611255565b604082019050919050565b600060208201905081810360008301526112e0816112a4565b9050919050565b7f4e487b7100000000000000000000000000000000000000000000000000000000600052602260045260246000fd5b6000600282049050600182168061132e57607f821691505b602082108103611341576113406112e7565b5b50919050565b60008190508160005260206000209050919050565b60006020601f8301049050919050565b600082821b905092915050565b6000600883026113a97fffffffffffffffffffffffffffffffffffffffffffffffffffffffffffffffff8261136c565b6113b3868361136c565b95508019841693508086168417925050509392505050565b6000819050919050565b60006113f06113eb6113e684610b94565b6113cb565b610b94565b9050919050565b6000819050919050565b61140a836113d5565b61141e611416826113f7565b848454611379565b825550505050565b600090565b611433611426565b61143e818484611401565b505050565b5b818110156114625761145760008261142b565b600181019050611444565b5050565b601f8211156114a75761147881611347565b6114818461135c565b81016020851015611490578190505b6114a461149c8561135c565b830182611443565b50505b505050565b600082821c905092915050565b60006114ca600019846008026114ac565b1980831691505092915050565b60006114e383836114b9565b9150826002028217905092915050565b6114fc82610ce3565b67ffffffffffffffff81111561151557611514610a69565b5b61151f8254611316565b61152a828285611466565b600060209050601f83116001811461155d576000841561154b578287015190505b61155585826114d7565b8655506115bd565b601f19841661156b86611347565b60005b828110156115935784890151825560018201915060208501945060208101905061156e565b868310156115b057848901516115ac601f8916826114b9565b8355505b6001600288020188555050505b505050505050565b7f4e487b7100000000000000000000000000000000000000000000000000000000600052601160045260246000fd5b60006115ff82610b94565b91507fffffffffffffffffffffffffffffffffffffffffffffffffffffffffffffffff8203611631576116306115c5565b5b600182019050919050565b600061164782610b94565b915061165283610b94565b925082820390508181111561166a576116696115c5565b5b92915050565b600081905092915050565b50565b600061168b600083611670565b91506116968261167b565b600082019050919050565b60006116ac8261167e565b9150819050919050565b60006116c182610b94565b91506116cc83610b94565b92508282019050808211156116e4576116e36115c5565b5b92915050565b7f4e487b7100000000000000000000000000000000000000000000000000000000600052603260045260246000fdfea264697066735822122005383ab897d567a2cd23137255e1b97e8dd2d121a348e6e80c02ebefa5ae730264736f6c63430008130033",
  "linkReferences": {},
  "deployedLinkReferences": {}
}